{
  "contractName": "SecureInsuranceContract",
  "abi": [
    {
      "inputs": [
        {
          "internalType": "int256",
          "name": "aadhaarCardNumber",
          "type": "int256"
        },
        {
          "internalType": "string",
          "name": "sex",
          "type": "string"
        },
        {
          "internalType": "address",
          "name": "bankName",
          "type": "address"
        },
        {
          "internalType": "int256",
          "name": "accountNumber",
          "type": "int256"
        },
        {
          "internalType": "address",
          "name": "insurerName",
          "type": "address"
        },
        {
          "internalType": "string",
          "name": "policyName",
          "type": "string"
        },
        {
          "internalType": "address",
          "name": "hospitalName",
          "type": "address"
        },
        {
          "internalType": "string",
          "name": "pan",
          "type": "string"
        },
        {
          "internalType": "int256",
          "name": "sumAssured",
          "type": "int256"
        },
        {
          "internalType": "int256",
          "name": "policyTerm",
          "type": "int256"
        },
        {
          "internalType": "int256",
          "name": "paymentTerm",
          "type": "int256"
        },
        {
          "internalType": "bool",
          "name": "premiumPayment",
          "type": "bool"
        }
      ],
      "stateMutability": "nonpayable",
      "type": "constructor"
    },
    {
      "inputs": [],
      "name": "AadhaarCardNumber",
      "outputs": [
        {
          "internalType": "int256",
          "name": "",
          "type": "int256"
        }
      ],
      "stateMutability": "view",
      "type": "function"
    },
    {
      "inputs": [],
      "name": "AccountNumber",
      "outputs": [
        {
          "internalType": "int256",
          "name": "",
          "type": "int256"
        }
      ],
      "stateMutability": "view",
      "type": "function"
    },
    {
      "inputs": [],
      "name": "Active",
      "outputs": [
        {
          "internalType": "bool",
          "name": "",
          "type": "bool"
        }
      ],
      "stateMutability": "view",
      "type": "function"
    },
    {
      "inputs": [],
      "name": "ActiveStatus",
      "outputs": [
        {
          "internalType": "bool",
          "name": "",
          "type": "bool"
        }
      ],
      "stateMutability": "view",
      "type": "function"
    },
    {
      "inputs": [],
      "name": "BankName",
      "outputs": [
        {
          "internalType": "address",
          "name": "",
          "type": "address"
        }
      ],
      "stateMutability": "view",
      "type": "function"
    },
    {
      "inputs": [],
      "name": "BankUnderwriter",
      "outputs": [
        {
          "internalType": "address",
          "name": "",
          "type": "address"
        }
      ],
      "stateMutability": "view",
      "type": "function"
    },
    {
      "inputs": [],
      "name": "BankUnderwritingResult",
      "outputs": [
        {
          "internalType": "string",
          "name": "",
          "type": "string"
        }
      ],
      "stateMutability": "view",
      "type": "function"
    },
    {
      "inputs": [],
      "name": "Buyer",
      "outputs": [
        {
          "internalType": "address",
          "name": "",
          "type": "address"
        }
      ],
      "stateMutability": "view",
      "type": "function"
    },
    {
      "inputs": [],
      "name": "ClaimReason",
      "outputs": [
        {
          "internalType": "string",
          "name": "",
          "type": "string"
        }
      ],
      "stateMutability": "view",
      "type": "function"
    },
    {
      "inputs": [],
      "name": "ClaimReasonRemark",
      "outputs": [
        {
          "internalType": "string",
          "name": "",
          "type": "string"
        }
      ],
      "stateMutability": "view",
      "type": "function"
    },
    {
      "inputs": [],
      "name": "ClaimReasonVerification",
      "outputs": [
        {
          "internalType": "bool",
          "name": "",
          "type": "bool"
        }
      ],
      "stateMutability": "view",
      "type": "function"
    },
    {
      "inputs": [],
      "name": "ClaimResponder",
      "outputs": [
        {
          "internalType": "address",
          "name": "",
          "type": "address"
        }
      ],
      "stateMutability": "view",
      "type": "function"
    },
    {
      "inputs": [],
      "name": "CustomerVerification",
      "outputs": [
        {
          "internalType": "bool",
          "name": "",
          "type": "bool"
        }
      ],
      "stateMutability": "view",
      "type": "function"
    },
    {
      "inputs": [],
      "name": "FinancialHealthPoints",
      "outputs": [
        {
          "internalType": "int256",
          "name": "",
          "type": "int256"
        }
      ],
      "stateMutability": "view",
      "type": "function"
    },
    {
      "inputs": [],
      "name": "HealthScore",
      "outputs": [
        {
          "internalType": "int256",
          "name": "",
          "type": "int256"
        }
      ],
      "stateMutability": "view",
      "type": "function"
    },
    {
      "inputs": [],
      "name": "HospitalName",
      "outputs": [
        {
          "internalType": "address",
          "name": "",
          "type": "address"
        }
      ],
      "stateMutability": "view",
      "type": "function"
    },
    {
      "inputs": [],
      "name": "InsuranceProvider",
      "outputs": [
        {
          "internalType": "address",
          "name": "",
          "type": "address"
        }
      ],
      "stateMutability": "view",
      "type": "function"
    },
    {
      "inputs": [],
      "name": "InsurerName",
      "outputs": [
        {
          "internalType": "address",
          "name": "",
          "type": "address"
        }
      ],
      "stateMutability": "view",
      "type": "function"
    },
    {
      "inputs": [],
      "name": "IssuanceDate",
      "outputs": [
        {
          "internalType": "string",
          "name": "",
          "type": "string"
        }
      ],
      "stateMutability": "view",
      "type": "function"
    },
    {
      "inputs": [],
      "name": "MaturityDate",
      "outputs": [
        {
          "internalType": "string",
          "name": "",
          "type": "string"
        }
      ],
      "stateMutability": "view",
      "type": "function"
    },
    {
      "inputs": [],
      "name": "MedicalUnderwriter",
      "outputs": [
        {
          "internalType": "address",
          "name": "",
          "type": "address"
        }
      ],
      "stateMutability": "view",
      "type": "function"
    },
    {
      "inputs": [],
      "name": "MedicalUnderwriting",
      "outputs": [
        {
          "internalType": "string",
          "name": "",
          "type": "string"
        }
      ],
      "stateMutability": "view",
      "type": "function"
    },
    {
      "inputs": [],
      "name": "PAN",
      "outputs": [
        {
          "internalType": "string",
          "name": "",
          "type": "string"
        }
      ],
      "stateMutability": "view",
      "type": "function"
    },
    {
      "inputs": [],
      "name": "PaymentTerm",
      "outputs": [
        {
          "internalType": "int256",
          "name": "",
          "type": "int256"
        }
      ],
      "stateMutability": "view",
      "type": "function"
    },
    {
      "inputs": [],
      "name": "PhysicalVerification",
      "outputs": [
        {
          "internalType": "bool",
          "name": "",
          "type": "bool"
        }
      ],
      "stateMutability": "view",
      "type": "function"
    },
    {
      "inputs": [],
      "name": "PolicyIssued",
      "outputs": [
        {
          "internalType": "bool",
          "name": "",
          "type": "bool"
        }
      ],
      "stateMutability": "view",
      "type": "function"
    },
    {
      "inputs": [],
      "name": "PolicyName",
      "outputs": [
        {
          "internalType": "string",
          "name": "",
          "type": "string"
        }
      ],
      "stateMutability": "view",
      "type": "function"
    },
    {
      "inputs": [],
      "name": "PolicyNumber",
      "outputs": [
        {
          "internalType": "int256",
          "name": "",
          "type": "int256"
        }
      ],
      "stateMutability": "view",
      "type": "function"
    },
    {
      "inputs": [],
      "name": "PolicyTerm",
      "outputs": [
        {
          "internalType": "int256",
          "name": "",
          "type": "int256"
        }
      ],
      "stateMutability": "view",
      "type": "function"
    },
    {
      "inputs": [],
      "name": "PremiumFinal",
      "outputs": [
        {
          "internalType": "int256",
          "name": "",
          "type": "int256"
        }
      ],
      "stateMutability": "view",
      "type": "function"
    },
    {
      "inputs": [],
      "name": "PremiumPayment",
      "outputs": [
        {
          "internalType": "bool",
          "name": "",
          "type": "bool"
        }
      ],
      "stateMutability": "view",
      "type": "function"
    },
    {
      "inputs": [],
      "name": "PremiumRecieved",
      "outputs": [
        {
          "internalType": "bool",
          "name": "",
          "type": "bool"
        }
      ],
      "stateMutability": "view",
      "type": "function"
    },
    {
      "inputs": [],
      "name": "Sex",
      "outputs": [
        {
          "internalType": "string",
          "name": "",
          "type": "string"
        }
      ],
      "stateMutability": "view",
      "type": "function"
    },
    {
      "inputs": [],
      "name": "State",
      "outputs": [
        {
          "internalType": "enum SecureInsuranceContract.StateType",
          "name": "",
          "type": "uint8"
        }
      ],
      "stateMutability": "view",
      "type": "function"
    },
    {
      "inputs": [],
      "name": "SumAssured",
      "outputs": [
        {
          "internalType": "int256",
          "name": "",
          "type": "int256"
        }
      ],
      "stateMutability": "view",
      "type": "function"
    },
    {
      "inputs": [],
      "name": "SumAssuredFinal",
      "outputs": [
        {
          "internalType": "int256",
          "name": "",
          "type": "int256"
        }
      ],
      "stateMutability": "view",
      "type": "function"
    },
    {
      "inputs": [],
      "name": "ConfirmDetails",
      "outputs": [],
      "stateMutability": "nonpayable",
      "type": "function"
    },
    {
      "inputs": [],
      "name": "SendToBankUnderwriter",
      "outputs": [],
      "stateMutability": "nonpayable",
      "type": "function"
    },
    {
      "inputs": [
        {
          "internalType": "bool",
          "name": "customerVerification",
          "type": "bool"
        },
        {
          "internalType": "bool",
          "name": "active",
          "type": "bool"
        },
        {
          "internalType": "int256",
          "name": "financialHealthPoints",
          "type": "int256"
        },
        {
          "internalType": "string",
          "name": "bankUnderwritingResult",
          "type": "string"
        }
      ],
      "name": "UpdateFinancialHealth",
      "outputs": [],
      "stateMutability": "nonpayable",
      "type": "function"
    },
    {
      "inputs": [],
      "name": "SendToMedicalUnderwriter",
      "outputs": [],
      "stateMutability": "nonpayable",
      "type": "function"
    },
    {
      "inputs": [
        {
          "internalType": "bool",
          "name": "activeStatus",
          "type": "bool"
        },
        {
          "internalType": "int256",
          "name": "healthScore",
          "type": "int256"
        },
        {
          "internalType": "bool",
          "name": "physicalVerification",
          "type": "bool"
        },
        {
          "internalType": "string",
          "name": "medicalUnderwriting",
          "type": "string"
        }
      ],
      "name": "UpdateMedicalHealth",
      "outputs": [],
      "stateMutability": "nonpayable",
      "type": "function"
    },
    {
      "inputs": [
        {
          "internalType": "bool",
          "name": "premiumRecieved",
          "type": "bool"
        },
        {
          "internalType": "int256",
          "name": "policyNumber",
          "type": "int256"
        },
        {
          "internalType": "string",
          "name": "issuanceDate",
          "type": "string"
        },
        {
          "internalType": "string",
          "name": "maturityDate",
          "type": "string"
        },
        {
          "internalType": "int256",
          "name": "premiumFinal",
          "type": "int256"
        },
        {
          "internalType": "int256",
          "name": "sumAssuredFinal",
          "type": "int256"
        },
        {
          "internalType": "bool",
          "name": "policyIssued",
          "type": "bool"
        }
      ],
      "name": "RecalculatePolicy",
      "outputs": [],
      "stateMutability": "nonpayable",
      "type": "function"
    },
    {
      "inputs": [],
      "name": "ConfirmPolicy",
      "outputs": [],
      "stateMutability": "nonpayable",
      "type": "function"
    },
    {
      "inputs": [],
      "name": "Reject",
      "outputs": [],
      "stateMutability": "nonpayable",
      "type": "function"
    },
    {
      "inputs": [
        {
          "internalType": "string",
          "name": "claimReason",
          "type": "string"
        },
        {
          "internalType": "address",
          "name": "claimResponder",
          "type": "address"
        }
      ],
      "name": "InvokeClaim",
      "outputs": [],
      "stateMutability": "nonpayable",
      "type": "function"
    },
    {
      "inputs": [
        {
          "internalType": "bool",
          "name": "claimReasonVerification",
          "type": "bool"
        },
        {
          "internalType": "string",
          "name": "claimReasonRemark",
          "type": "string"
        }
      ],
      "name": "SubmitClaimDetails",
      "outputs": [],
      "stateMutability": "nonpayable",
      "type": "function"
    },
    {
      "inputs": [],
      "name": "ClaimRequestAccepted",
      "outputs": [],
      "stateMutability": "nonpayable",
      "type": "function"
    },
    {
      "inputs": [],
      "name": "ClaimRequestRejected",
      "outputs": [],
      "stateMutability": "nonpayable",
      "type": "function"
    }
  ],
  "bytecode": "0x60806040523480156200001157600080fd5b50604051620023523803806200235283398181016040526101808110156200003857600080fd5b8101908080519060200190929190805160405193929190846401000000008211156200006357600080fd5b838201915060208201858111156200007a57600080fd5b82518660018202830111640100000000821117156200009857600080fd5b8083526020830192505050908051906020019080838360005b83811015620000ce578082015181840152602081019050620000b1565b50505050905090810190601f168015620000fc5780820380516001836020036101000a031916815260200191505b50604052602001805190602001909291908051906020019092919080519060200190929190805160405193929190846401000000008211156200013e57600080fd5b838201915060208201858111156200015557600080fd5b82518660018202830111640100000000821117156200017357600080fd5b8083526020830192505050908051906020019080838360005b83811015620001a95780820151818401526020810190506200018c565b50505050905090810190601f168015620001d75780820380516001836020036101000a031916815260200191505b5060405260200180519060200190929190805160405193929190846401000000008211156200020557600080fd5b838201915060208201858111156200021c57600080fd5b82518660018202830111640100000000821117156200023a57600080fd5b8083526020830192505050908051906020019080838360005b838110156200027057808201518184015260208101905062000253565b50505050905090810190601f1680156200029e5780820380516001836020036101000a031916815260200191505b506040526020018051906020019092919080519060200190929190805190602001909291908051906020019092919050505033600060016101000a81548173ffffffffffffffffffffffffffffffffffffffff021916908373ffffffffffffffffffffffffffffffffffffffff1602179055508b6004819055508a600590805190602001906200033092919062000492565b5089600660006101000a81548173ffffffffffffffffffffffffffffffffffffffff021916908373ffffffffffffffffffffffffffffffffffffffff1602179055508860078190555087600860006101000a81548173ffffffffffffffffffffffffffffffffffffffff021916908373ffffffffffffffffffffffffffffffffffffffff1602179055508660099080519060200190620003d292919062000492565b5085600a60006101000a81548173ffffffffffffffffffffffffffffffffffffffff021916908373ffffffffffffffffffffffffffffffffffffffff16021790555084600b90805190602001906200042c92919062000492565b5083600c8190555082600d8190555081600e8190555080600f60006101000a81548160ff02191690831515021790555060008060006101000a81548160ff0219169083600c8111156200047b57fe5b021790555050505050505050505050505062000548565b828054600181600116156101000203166002900490600052602060002090601f016020900481019282620004ca576000855562000516565b82601f10620004e557805160ff191683800117855562000516565b8280016001018555821562000516579182015b8281111562000515578251825591602001919060010190620004f8565b5b50905062000525919062000529565b5090565b5b80821115620005445760008160009055506001016200052a565b5090565b611dfa80620005586000396000f3fe608060405234801561001057600080fd5b50600436106102a05760003560e01c806397604e3911610167578063c91d88b4116100ce578063d56798a411610087578063d56798a414610f37578063dc7a790214610f41578063e75360af14610fc4578063ea8c1bd514610fe2578063f1b6dccd14611016578063f95d2f571461103f576102a0565b8063c91d88b414610d6f578063c9b0a2a714610e4c578063cae18a7214610e6c578063cba5982714610e76578063cdc2489014610e80578063d3e3a0ef14610eb4576102a0565b8063aa92875111610120578063aa92875114610a97578063ab40fc8a14610ab7578063b867002d14610ac1578063baf0b74314610ae1578063bf68645314610b64578063c771c06014610be7576102a0565b806397604e39146109205780639913976e146109e75780639d94f4c814610a07578063a1c12e6b14610a25578063a6b703fe14610a59578063a9e6488c14610a77576102a0565b80636dd8298e1161020b57806381715fc9116101c457806381715fc9146107a0578063879c1d1b146107be5780638a69a96e146108415780638fe6c2dd146108c4578063924a6917146108e257806395a3ca5914610916576102a0565b80636dd8298e146105565780637417472b1461063157806377ae8d851461063b5780637838fbb01461065b5780637f196f5414610738578063806dd4641461076c576102a0565b80632633f3941161025d5780632633f39414610439578063314bba3f146104575780633f51e53f1461047557806348e7c954146104a95780634afb7e79146104b35780636b4dc25814610536576102a0565b8063026572ce146102a557806303a9e943146102c35780630c5c209d146103465780631b9c1524146103645780631d0f9117146103825780631ec57f6c14610405575b600080fd5b6102ad61105f565b6040518082815260200191505060405180910390f35b6102cb611065565b6040518080602001828103825283818151815260200191508051906020019080838360005b8381101561030b5780820151818401526020810190506102f0565b50505050905090810190601f1680156103385780820380516001836020036101000a031916815260200191505b509250505060405180910390f35b61034e611103565b6040518082815260200191505060405180910390f35b61036c611109565b6040518082815260200191505060405180910390f35b61038a61110f565b6040518080602001828103825283818151815260200191508051906020019080838360005b838110156103ca5780820151818401526020810190506103af565b50505050905090810190601f1680156103f75780820380516001836020036101000a031916815260200191505b509250505060405180910390f35b61040d6111ad565b604051808273ffffffffffffffffffffffffffffffffffffffff16815260200191505060405180910390f35b6104416111d3565b6040518082815260200191505060405180910390f35b61045f6111d9565b6040518082815260200191505060405180910390f35b61047d6111df565b604051808273ffffffffffffffffffffffffffffffffffffffff16815260200191505060405180910390f35b6104b1611205565b005b6104bb61122a565b6040518080602001828103825283818151815260200191508051906020019080838360005b838110156104fb5780820151818401526020810190506104e0565b50505050905090810190601f1680156105285780820380516001836020036101000a031916815260200191505b509250505060405180910390f35b61053e6112c8565b60405180821515815260200191505060405180910390f35b61062f6004803603604081101561056c57600080fd5b810190808035906020019064010000000081111561058957600080fd5b82018360208201111561059b57600080fd5b803590602001918460018302840111640100000000831117156105bd57600080fd5b91908080601f016020809104026020016040519081016040528093929190818152602001838380828437600081840152601f19601f820116905080830192505050505050509192919290803573ffffffffffffffffffffffffffffffffffffffff1690602001909291905050506112db565b005b61063961135a565b005b6106436113c0565b60405180821515815260200191505060405180910390f35b6107366004803603608081101561067157600080fd5b8101908080351515906020019092919080359060200190929190803515159060200190929190803590602001906401000000008111156106b057600080fd5b8201836020820111156106c257600080fd5b803590602001918460018302840111640100000000831117156106e457600080fd5b91908080601f016020809104026020016040519081016040528093929190818152602001838380828437600081840152601f19601f8201169050808301925050505050505091929192905050506113d3565b005b61074061148f565b604051808273ffffffffffffffffffffffffffffffffffffffff16815260200191505060405180910390f35b6107746114b5565b604051808273ffffffffffffffffffffffffffffffffffffffff16815260200191505060405180910390f35b6107a86114db565b6040518082815260200191505060405180910390f35b6107c66114e1565b6040518080602001828103825283818151815260200191508051906020019080838360005b838110156108065780820151818401526020810190506107eb565b50505050905090810190601f1680156108335780820380516001836020036101000a031916815260200191505b509250505060405180910390f35b61084961157f565b6040518080602001828103825283818151815260200191508051906020019080838360005b8381101561088957808201518184015260208101905061086e565b50505050905090810190601f1680156108b65780820380516001836020036101000a031916815260200191505b509250505060405180910390f35b6108cc61161d565b6040518082815260200191505060405180910390f35b6108ea611623565b604051808273ffffffffffffffffffffffffffffffffffffffff16815260200191505060405180910390f35b61091e611649565b005b6109e56004803603604081101561093657600080fd5b810190808035151590602001909291908035906020019064010000000081111561095f57600080fd5b82018360208201111561097157600080fd5b8035906020019184600183028401116401000000008311171561099357600080fd5b91908080601f016020809104026020016040519081016040528093929190818152602001838380828437600081840152601f19601f82011690508083019250505050505050919291929050505061166e565b005b6109ef6116c6565b60405180821515815260200191505060405180910390f35b610a0f6116d9565b6040518082815260200191505060405180910390f35b610a2d6116df565b604051808273ffffffffffffffffffffffffffffffffffffffff16815260200191505060405180910390f35b610a61611705565b6040518082815260200191505060405180910390f35b610a7f61170b565b60405180821515815260200191505060405180910390f35b610a9f61171e565b60405180821515815260200191505060405180910390f35b610abf611731565b005b610ac9611797565b60405180821515815260200191505060405180910390f35b610ae96117aa565b6040518080602001828103825283818151815260200191508051906020019080838360005b83811015610b29578082015181840152602081019050610b0e565b50505050905090810190601f168015610b565780820380516001836020036101000a031916815260200191505b509250505060405180910390f35b610b6c611848565b6040518080602001828103825283818151815260200191508051906020019080838360005b83811015610bac578082015181840152602081019050610b91565b50505050905090810190601f168015610bd95780820380516001836020036101000a031916815260200191505b509250505060405180910390f35b610d6d600480360360e0811015610bfd57600080fd5b810190808035151590602001909291908035906020019092919080359060200190640100000000811115610c3057600080fd5b820183602082011115610c4257600080fd5b80359060200191846001830284011164010000000083111715610c6457600080fd5b91908080601f016020809104026020016040519081016040528093929190818152602001838380828437600081840152601f19601f82011690508083019250505050505050919291929080359060200190640100000000811115610cc757600080fd5b820183602082011115610cd957600080fd5b80359060200191846001830284011164010000000083111715610cfb57600080fd5b91908080601f016020809104026020016040519081016040528093929190818152602001838380828437600081840152601f19601f82011690508083019250505050505050919291929080359060200190929190803590602001909291908035151590602001909291905050506118e6565b005b610e4a60048036036080811015610d8557600080fd5b810190808035151590602001909291908035151590602001909291908035906020019092919080359060200190640100000000811115610dc457600080fd5b820183602082011115610dd657600080fd5b80359060200191846001830284011164010000000083111715610df857600080fd5b91908080601f016020809104026020016040519081016040528093929190818152602001838380828437600081840152601f19601f820116905080830192505050505050509192919290505050611989565b005b610e54611a45565b60405180821515815260200191505060405180910390f35b610e74611a58565b005b610e7e611abe565b005b610e88611b01565b604051808273ffffffffffffffffffffffffffffffffffffffff16815260200191505060405180910390f35b610ebc611b27565b6040518080602001828103825283818151815260200191508051906020019080838360005b83811015610efc578082015181840152602081019050610ee1565b50505050905090810190601f168015610f295780820380516001836020036101000a031916815260200191505b509250505060405180910390f35b610f3f611bc5565b005b610f49611c2b565b6040518080602001828103825283818151815260200191508051906020019080838360005b83811015610f89578082015181840152602081019050610f6e565b50505050905090810190601f168015610fb65780820380516001836020036101000a031916815260200191505b509250505060405180910390f35b610fcc611cc9565b6040518082815260200191505060405180910390f35b610fea611ccf565b604051808273ffffffffffffffffffffffffffffffffffffffff16815260200191505060405180910390f35b61101e611cf5565b6040518082600c81111561102e57fe5b815260200191505060405180910390f35b611047611d06565b60405180821515815260200191505060405180910390f35b60175481565b60118054600181600116156101000203166002900480601f0160208091040260200160405190810160405280929190818152602001828054600181600116156101000203166002900480156110fb5780601f106110d0576101008083540402835291602001916110fb565b820191906000526020600020905b8154815290600101906020018083116110de57829003601f168201915b505050505081565b600c5481565b60135481565b60158054600181600116156101000203166002900480601f0160208091040260200160405190810160405280929190818152602001828054600181600116156101000203166002900480156111a55780601f1061117a576101008083540402835291602001916111a5565b820191906000526020600020905b81548152906001019060200180831161118857829003601f168201915b505050505081565b600260009054906101000a900473ffffffffffffffffffffffffffffffffffffffff1681565b601b5481565b60075481565b602060009054906101000a900473ffffffffffffffffffffffffffffffffffffffff1681565b600c6000806101000a81548160ff0219169083600c81111561122357fe5b0217905550565b60098054600181600116156101000203166002900480601f0160208091040260200160405190810160405280929190818152602001828054600181600116156101000203166002900480156112c05780601f10611295576101008083540402835291602001916112c0565b820191906000526020600020905b8154815290600101906020018083116112a357829003601f168201915b505050505081565b601e60009054906101000a900460ff1681565b81601d90805190602001906112f1929190611d19565b5080602060006101000a81548173ffffffffffffffffffffffffffffffffffffffff021916908373ffffffffffffffffffffffffffffffffffffffff16021790555060096000806101000a81548160ff0219169083600c81111561135157fe5b02179055505050565b33600360006101000a81548173ffffffffffffffffffffffffffffffffffffffff021916908373ffffffffffffffffffffffffffffffffffffffff16021790555060046000806101000a81548160ff0219169083600c8111156113b957fe5b0217905550565b601c60009054906101000a900460ff1681565b33600260006101000a81548173ffffffffffffffffffffffffffffffffffffffff021916908373ffffffffffffffffffffffffffffffffffffffff16021790555083601260006101000a81548160ff0219169083151502179055508260138190555081601460006101000a81548160ff0219169083151502179055508060159080519060200190611465929190611d19565b5060056000806101000a81548160ff0219169083600c81111561148457fe5b021790555050505050565b600160009054906101000a900473ffffffffffffffffffffffffffffffffffffffff1681565b600660009054906101000a900473ffffffffffffffffffffffffffffffffffffffff1681565b60105481565b60188054600181600116156101000203166002900480601f0160208091040260200160405190810160405280929190818152602001828054600181600116156101000203166002900480156115775780601f1061154c57610100808354040283529160200191611577565b820191906000526020600020905b81548152906001019060200180831161155a57829003601f168201915b505050505081565b601f8054600181600116156101000203166002900480601f0160208091040260200160405190810160405280929190818152602001828054600181600116156101000203166002900480156116155780601f106115ea57610100808354040283529160200191611615565b820191906000526020600020905b8154815290600101906020018083116115f857829003601f168201915b505050505081565b600e5481565b600360009054906101000a900473ffffffffffffffffffffffffffffffffffffffff1681565b600b6000806101000a81548160ff0219169083600c81111561166757fe5b0217905550565b81601e60006101000a81548160ff02191690831515021790555080601f908051906020019061169e929190611d19565b50600a6000806101000a81548160ff0219169083600c8111156116bd57fe5b02179055505050565b600f60019054906101000a900460ff1681565b60045481565b600060019054906101000a900473ffffffffffffffffffffffffffffffffffffffff1681565b601a5481565b601460009054906101000a900460ff1681565b600f60009054906101000a900460ff1681565b33600060016101000a81548173ffffffffffffffffffffffffffffffffffffffff021916908373ffffffffffffffffffffffffffffffffffffffff16021790555060016000806101000a81548160ff0219169083600c81111561179057fe5b0217905550565b601660009054906101000a900460ff1681565b60058054600181600116156101000203166002900480601f0160208091040260200160405190810160405280929190818152602001828054600181600116156101000203166002900480156118405780601f1061181557610100808354040283529160200191611840565b820191906000526020600020905b81548152906001019060200180831161182357829003601f168201915b505050505081565b600b8054600181600116156101000203166002900480601f0160208091040260200160405190810160405280929190818152602001828054600181600116156101000203166002900480156118de5780601f106118b3576101008083540402835291602001916118de565b820191906000526020600020905b8154815290600101906020018083116118c157829003601f168201915b505050505081565b86601660006101000a81548160ff02191690831515021790555085601781905550846018908051906020019061191d929190611d19565b508360199080519060200190611934929190611d19565b5082601a8190555081601b8190555080601c60006101000a81548160ff02191690831515021790555060066000806101000a81548160ff0219169083600c81111561197b57fe5b021790555050505050505050565b33600160006101000a81548173ffffffffffffffffffffffffffffffffffffffff021916908373ffffffffffffffffffffffffffffffffffffffff16021790555083600f60016101000a81548160ff02191690831515021790555082600f60026101000a81548160ff021916908315150217905550816010819055508060119080519060200190611a1b929190611d19565b5060036000806101000a81548160ff0219169083600c811115611a3a57fe5b021790555050505050565b600f60029054906101000a900460ff1681565b33600060016101000a81548173ffffffffffffffffffffffffffffffffffffffff021916908373ffffffffffffffffffffffffffffffffffffffff16021790555060076000806101000a81548160ff0219169083600c811115611ab757fe5b0217905550565b33600060016101000a81548173ffffffffffffffffffffffffffffffffffffffff021916908373ffffffffffffffffffffffffffffffffffffffff160217905550565b600860009054906101000a900473ffffffffffffffffffffffffffffffffffffffff1681565b60198054600181600116156101000203166002900480601f016020809104026020016040519081016040528092919081815260200182805460018160011615610100020316600290048015611bbd5780601f10611b9257610100808354040283529160200191611bbd565b820191906000526020600020905b815481529060010190602001808311611ba057829003601f168201915b505050505081565b33600360006101000a81548173ffffffffffffffffffffffffffffffffffffffff021916908373ffffffffffffffffffffffffffffffffffffffff16021790555060026000806101000a81548160ff0219169083600c811115611c2457fe5b0217905550565b601d8054600181600116156101000203166002900480601f016020809104026020016040519081016040528092919081815260200182805460018160011615610100020316600290048015611cc15780601f10611c9657610100808354040283529160200191611cc1565b820191906000526020600020905b815481529060010190602001808311611ca457829003601f168201915b505050505081565b600d5481565b600a60009054906101000a900473ffffffffffffffffffffffffffffffffffffffff1681565b60008054906101000a900460ff1681565b601260009054906101000a900460ff1681565b828054600181600116156101000203166002900490600052602060002090601f016020900481019282611d4f5760008555611d96565b82601f10611d6857805160ff1916838001178555611d96565b82800160010185558215611d96579182015b82811115611d95578251825591602001919060010190611d7a565b5b509050611da39190611da7565b5090565b5b80821115611dc0576000816000905550600101611da8565b509056fea264697066735822122048347e538c84792439c98c967698d1e6e7787f432ed02e3b5f73479b5a1f514e64736f6c63430007060033",
  "immutableReferences": {},
  "source": "// SPDX-License-Identifier: GPL-3.0\n\npragma solidity >=0.4.0 <0.8.0;\n// import './BlockSecure.sol';\n\n\ncontract SecureInsuranceContract\n{\n    enum StateType { BuyPolicy, RequestUnderwriting,BankUnderwriting,BankUnderwritingDone,MedicalUnderwriting,MedicalUnderwritingDone,FinalPolicyIssuance,ConfirmPolicyDetails,Rejected,ClaimVerificationFromHospital,ClaimVerificationDone,ClaimAcccepted,ClaimRejected}\n    StateType public  State;\n\n    address public  Buyer;\n    address public  BankUnderwriter;\n    address public  MedicalUnderwriter;\n    address public  InsuranceProvider;\n\n    int public AadhaarCardNumber;\n    string public Sex;\n    address public BankName;\n    int public AccountNumber;\n    address public InsurerName;\n    string public PolicyName;\n    address public HospitalName;\n    string public PAN;\n    int public SumAssured;\n    int public PolicyTerm;\n\n    int public PaymentTerm;\n    bool public PremiumPayment;\n    bool public CustomerVerification;\n    bool public Active;\n    int public FinancialHealthPoints;\n    string public BankUnderwritingResult;\n    bool public ActiveStatus;\n    int public HealthScore;\n    bool public PhysicalVerification;\n    string public MedicalUnderwriting;\n    bool public PremiumRecieved;\n    int public PolicyNumber;\n    string public IssuanceDate;\n    string public MaturityDate;\n    int public PremiumFinal;\n    int public  SumAssuredFinal;\n    bool public PolicyIssued;\n    string public ClaimReason;\n    bool public ClaimReasonVerification;\n    string public ClaimReasonRemark;\n    address public ClaimResponder;\n\n    constructor(int aadhaarCardNumber,string memory sex, address bankName, int accountNumber, address insurerName,string memory policyName,address hospitalName,string memory pan, int sumAssured,int policyTerm,int paymentTerm, bool premiumPayment) {\n            Buyer = msg.sender;\n\n            AadhaarCardNumber=aadhaarCardNumber;\n            Sex=sex;\n            BankName=bankName;\n            AccountNumber=accountNumber;\n            InsurerName=insurerName;\n            PolicyName=policyName;\n            HospitalName=hospitalName;\n            PAN=pan;\n            SumAssured=sumAssured;\n            PolicyTerm=policyTerm;\n            PaymentTerm=paymentTerm;\n            PremiumPayment=premiumPayment;\n\n            State = StateType.BuyPolicy;\n    }\n\n    function ConfirmDetails() public {\n         Buyer = msg.sender;\n         State = StateType.RequestUnderwriting;\n    }\n\n    function SendToBankUnderwriter() public {\n        InsuranceProvider = msg.sender;\n        State = StateType.BankUnderwriting;\n    }\n\n    function UpdateFinancialHealth(bool customerVerification,bool active,int financialHealthPoints,string memory bankUnderwritingResult) public {\n        BankUnderwriter = msg.sender;\n        CustomerVerification=customerVerification;\n        Active=active;\n        FinancialHealthPoints=financialHealthPoints;\n        BankUnderwritingResult=bankUnderwritingResult;\n\n        State = StateType.BankUnderwritingDone;\n    }\n    function  SendToMedicalUnderwriter() public {\n         InsuranceProvider = msg.sender;\n         State = StateType.MedicalUnderwriting;\n    }\n\n    function  UpdateMedicalHealth(bool activeStatus,int healthScore,bool physicalVerification,string memory medicalUnderwriting) public {\n         MedicalUnderwriter = msg.sender;\n         ActiveStatus=activeStatus;\n         HealthScore=healthScore;\n         PhysicalVerification=physicalVerification;\n         MedicalUnderwriting=medicalUnderwriting;\n\n         State = StateType.MedicalUnderwritingDone;\n    }\n\n    function RecalculatePolicy(bool premiumRecieved,int policyNumber,string memory issuanceDate,string memory maturityDate,int premiumFinal,int sumAssuredFinal,bool policyIssued ) public {\n        PremiumRecieved=premiumRecieved;\n        PolicyNumber=policyNumber;\n        IssuanceDate=issuanceDate;\n        MaturityDate=maturityDate;\n        PremiumFinal=premiumFinal;\n        SumAssuredFinal=sumAssuredFinal;\n        PolicyIssued=policyIssued;\n\n        State = StateType.FinalPolicyIssuance;\n    }\n    function ConfirmPolicy() public {\n        Buyer = msg.sender;\n        State = StateType.ConfirmPolicyDetails;\n    }\n    function Reject() public {\n        Buyer = msg.sender;\n    }\n\n    function InvokeClaim(string memory claimReason,address claimResponder) public {\n        ClaimReason = claimReason;\n        ClaimResponder=claimResponder;\n        State = StateType.ClaimVerificationFromHospital;\n    }\n\n    function SubmitClaimDetails(bool claimReasonVerification,string memory claimReasonRemark) public {\n        ClaimReasonVerification = claimReasonVerification;\n        ClaimReasonRemark=claimReasonRemark;\n        State = StateType.ClaimVerificationDone;\n    }\n     function ClaimRequestAccepted() public {\n        State = StateType.ClaimAcccepted;\n    }\n     function ClaimRequestRejected() public {\n        State = StateType.ClaimRejected;\n    }\n}\n// this contract is deployed only once\n// all the insurances are updated as a part of state update\n// an automated deployer for all insurances\ncontract BlockSecureDeployer {\n    // a list that holds all the insurances\n    SecureInsuranceContract[] public insurances;\n    uint public insuranceCounter;\n    constructor() {\n        insuranceCounter=0;\n    }\n    function ApplyForInsurance(int aadhaarCardNumber,string memory sex, address bankName, int accountNumber, address insurerName,string memory policyName,address hospitalName,string memory pan, int sumAssured,int policyTerm,int paymentTerm, bool premiumPayment) public returns (uint) {\n        // create an instance of the insurance contract here\n        SecureInsuranceContract insurance = new SecureInsuranceContract(aadhaarCardNumber, sex, bankName, accountNumber, insurerName, policyName, hospitalName, pan, sumAssured, policyTerm, paymentTerm, premiumPayment);\n        // add to the list of insurances\n        insurances.push(insurance);\n        insuranceCounter++;\n        return (uint(insuranceCounter-1));\n    }\n    function FetchInsuranceByIndex(uint idx) public view returns (int aadhaarCardNumber, int accountNumber, string memory pan, uint state, address bankName, address insurerName, address hospitalName, string memory policyName, int sumAssured, int policyTerm, int paymentTerm, bool premiumPayment) {\n        SecureInsuranceContract SIC = SecureInsuranceContract(insurances[idx]);\n        return (SIC.AadhaarCardNumber(), SIC.AccountNumber(), SIC.PAN(), uint(SIC.State()), SIC.BankName(), SIC.InsurerName(), SIC.HospitalName(), SIC.PolicyName(), SIC.SumAssured(), SIC.PolicyTerm(), SIC.PaymentTerm(), SIC.PremiumPayment());\n    }\n    function ConfirmDetails(uint idx) public returns (uint) {\n        // fetch the required insurance\n        SecureInsuranceContract SIC = SecureInsuranceContract(insurances[idx]);\n        SIC.ConfirmDetails();\n        return uint(SIC.State());\n    }\n    function SendToBankUnderwriter(uint idx) public returns (uint) {\n        // fetch the required insurance\n        SecureInsuranceContract SIC = SecureInsuranceContract(insurances[idx]);\n        SIC.SendToBankUnderwriter();\n        return uint(SIC.State());\n    }\n    function UpdateFinancialHealth(uint idx, bool customerVerification, bool active, int financialHealthPoints, string memory bankUnderwritingResult) public returns (uint) {\n        // fetch the required insurance\n        SecureInsuranceContract SIC = SecureInsuranceContract(insurances[idx]);\n        SIC.UpdateFinancialHealth(customerVerification, active, financialHealthPoints, bankUnderwritingResult);\n        return uint(SIC.State());        \n    }\n    function SendToMedicalUnderwriter(uint idx) public returns (uint) {\n        // fetch the required insurance\n        SecureInsuranceContract SIC = SecureInsuranceContract(insurances[idx]);\n        SIC.SendToMedicalUnderwriter();\n        return uint(SIC.State());        \n    }\n    function UpdateMedicalHealth(uint idx, bool activeStatus, int healthScore, bool physicalVerification, string memory medicalUnderwriting) public returns (uint) {\n        SecureInsuranceContract SIC = SecureInsuranceContract(insurances[idx]);\n        SIC.UpdateMedicalHealth(activeStatus, healthScore, physicalVerification, medicalUnderwriting);\n        return uint(SIC.State());          \n    } \n    function RecalculatePolicy(uint idx, bool premiumReceived, int policyNumber, string memory issuanceDate, string memory maturityDate, int premiumFinal, int sumAssuredFinal, bool policyIssued) public returns (uint) {\n        SecureInsuranceContract SIC = SecureInsuranceContract(insurances[idx]);\n        SIC.RecalculatePolicy(premiumReceived, policyNumber, issuanceDate, maturityDate, premiumFinal, sumAssuredFinal, policyIssued);\n        return uint(SIC.State());        \n    }\n    function ConfirmPolicy(uint idx) public returns (uint) {\n        SecureInsuranceContract SIC = SecureInsuranceContract(insurances[idx]);\n        SIC.ConfirmPolicy();\n        return uint(SIC.State());         \n    }\n    function Reject(uint idx) public returns (uint) {\n        SecureInsuranceContract SIC = SecureInsuranceContract(insurances[idx]);\n        SIC.Reject();\n        return uint(SIC.State());       \n    }\n    function InvokeClaim(uint idx, string memory claimReason, address claimResponder) public returns (uint) {\n        SecureInsuranceContract SIC = SecureInsuranceContract(insurances[idx]);\n        SIC.InvokeClaim(claimReason, claimResponder);\n        return uint(SIC.State());\n    }\n    function SubmitClaimDetails(uint idx, bool claimReasonVerification, string memory claimReasonRemark) public returns (uint) {\n        SecureInsuranceContract SIC = SecureInsuranceContract(insurances[idx]);\n        SIC.SubmitClaimDetails(claimReasonVerification, claimReasonRemark);\n        return uint(SIC.State());\n    }\n    function ClaimRequestAccepted(uint idx) public returns (uint) {\n        SecureInsuranceContract SIC = SecureInsuranceContract(insurances[idx]);\n        SIC.ClaimRequestAccepted();\n        return uint(SIC.State());\n    }\n    function ClaimRequestRejected(uint idx) public returns (uint) {\n        SecureInsuranceContract SIC = SecureInsuranceContract(insurances[idx]);\n        SIC.ClaimRequestRejected();\n        return uint(SIC.State());\n    }\n\n}\n",
  "sourcePath": "C:\\Users\\Abhishek\\OneDrive\\Desktop\\final v2 - atlas & cloud\\trust-insure-master\\contracts\\BlockSecureDeployer.sol",
  "compiler": {
    "name": "solc",
    "version": "0.7.6+commit.7338295f.Emscripten.clang"
  },
  "schemaVersion": "3.4.11",
  "updatedAt": "2023-04-12T04:57:16.839Z",
  "devdoc": {
    "kind": "dev",
    "methods": {},
    "version": 1
  },
  "userdoc": {
    "kind": "user",
    "methods": {},
    "version": 1
  }
}